{
  "_format": "hh-sol-artifact-1",
  "contractName": "DLivretTicket",
  "sourceName": "contracts/DLivretTicket.sol",
  "abi": [
    {
      "inputs": [],
      "stateMutability": "nonpayable",
      "type": "constructor"
    },
    {
      "inputs": [
        {
          "internalType": "address",
          "name": "sender",
          "type": "address"
        },
        {
          "internalType": "uint256",
          "name": "balance",
          "type": "uint256"
        },
        {
          "internalType": "uint256",
          "name": "needed",
          "type": "uint256"
        },
        {
          "internalType": "uint256",
          "name": "tokenId",
          "type": "uint256"
        }
      ],
      "name": "ERC1155InsufficientBalance",
      "type": "error"
    },
    {
      "inputs": [
        {
          "internalType": "address",
          "name": "approver",
          "type": "address"
        }
      ],
      "name": "ERC1155InvalidApprover",
      "type": "error"
    },
    {
      "inputs": [
        {
          "internalType": "uint256",
          "name": "idsLength",
          "type": "uint256"
        },
        {
          "internalType": "uint256",
          "name": "valuesLength",
          "type": "uint256"
        }
      ],
      "name": "ERC1155InvalidArrayLength",
      "type": "error"
    },
    {
      "inputs": [
        {
          "internalType": "address",
          "name": "operator",
          "type": "address"
        }
      ],
      "name": "ERC1155InvalidOperator",
      "type": "error"
    },
    {
      "inputs": [
        {
          "internalType": "address",
          "name": "receiver",
          "type": "address"
        }
      ],
      "name": "ERC1155InvalidReceiver",
      "type": "error"
    },
    {
      "inputs": [
        {
          "internalType": "address",
          "name": "sender",
          "type": "address"
        }
      ],
      "name": "ERC1155InvalidSender",
      "type": "error"
    },
    {
      "inputs": [
        {
          "internalType": "address",
          "name": "operator",
          "type": "address"
        },
        {
          "internalType": "address",
          "name": "owner",
          "type": "address"
        }
      ],
      "name": "ERC1155MissingApprovalForAll",
      "type": "error"
    },
    {
      "inputs": [
        {
          "internalType": "address",
          "name": "owner",
          "type": "address"
        }
      ],
      "name": "OwnableInvalidOwner",
      "type": "error"
    },
    {
      "inputs": [
        {
          "internalType": "address",
          "name": "account",
          "type": "address"
        }
      ],
      "name": "OwnableUnauthorizedAccount",
      "type": "error"
    },
    {
      "anonymous": false,
      "inputs": [
        {
          "indexed": true,
          "internalType": "address",
          "name": "account",
          "type": "address"
        },
        {
          "indexed": true,
          "internalType": "address",
          "name": "operator",
          "type": "address"
        },
        {
          "indexed": false,
          "internalType": "bool",
          "name": "approved",
          "type": "bool"
        }
      ],
      "name": "ApprovalForAll",
      "type": "event"
    },
    {
      "anonymous": false,
      "inputs": [
        {
          "indexed": false,
          "internalType": "address",
          "name": "callerContract",
          "type": "address"
        }
      ],
      "name": "CallerContractAdded",
      "type": "event"
    },
    {
      "anonymous": false,
      "inputs": [
        {
          "indexed": false,
          "internalType": "address",
          "name": "callerContract",
          "type": "address"
        }
      ],
      "name": "CallerContractRemoved",
      "type": "event"
    },
    {
      "anonymous": false,
      "inputs": [
        {
          "indexed": true,
          "internalType": "address",
          "name": "previousOwner",
          "type": "address"
        },
        {
          "indexed": true,
          "internalType": "address",
          "name": "newOwner",
          "type": "address"
        }
      ],
      "name": "OwnershipTransferred",
      "type": "event"
    },
    {
      "anonymous": false,
      "inputs": [
        {
          "indexed": false,
          "internalType": "address",
          "name": "user",
          "type": "address"
        },
        {
          "indexed": false,
          "internalType": "uint256",
          "name": "ticketId",
          "type": "uint256"
        },
        {
          "indexed": false,
          "internalType": "uint256",
          "name": "amount",
          "type": "uint256"
        }
      ],
      "name": "TicketBurned",
      "type": "event"
    },
    {
      "anonymous": false,
      "inputs": [
        {
          "indexed": false,
          "internalType": "address",
          "name": "user",
          "type": "address"
        },
        {
          "indexed": false,
          "internalType": "uint256",
          "name": "ticketId",
          "type": "uint256"
        },
        {
          "indexed": false,
          "internalType": "uint256",
          "name": "amount",
          "type": "uint256"
        }
      ],
      "name": "TicketMinted",
      "type": "event"
    },
    {
      "anonymous": false,
      "inputs": [
        {
          "indexed": true,
          "internalType": "address",
          "name": "operator",
          "type": "address"
        },
        {
          "indexed": true,
          "internalType": "address",
          "name": "from",
          "type": "address"
        },
        {
          "indexed": true,
          "internalType": "address",
          "name": "to",
          "type": "address"
        },
        {
          "indexed": false,
          "internalType": "uint256[]",
          "name": "ids",
          "type": "uint256[]"
        },
        {
          "indexed": false,
          "internalType": "uint256[]",
          "name": "values",
          "type": "uint256[]"
        }
      ],
      "name": "TransferBatch",
      "type": "event"
    },
    {
      "anonymous": false,
      "inputs": [
        {
          "indexed": true,
          "internalType": "address",
          "name": "operator",
          "type": "address"
        },
        {
          "indexed": true,
          "internalType": "address",
          "name": "from",
          "type": "address"
        },
        {
          "indexed": true,
          "internalType": "address",
          "name": "to",
          "type": "address"
        },
        {
          "indexed": false,
          "internalType": "uint256",
          "name": "id",
          "type": "uint256"
        },
        {
          "indexed": false,
          "internalType": "uint256",
          "name": "value",
          "type": "uint256"
        }
      ],
      "name": "TransferSingle",
      "type": "event"
    },
    {
      "anonymous": false,
      "inputs": [
        {
          "indexed": false,
          "internalType": "string",
          "name": "value",
          "type": "string"
        },
        {
          "indexed": true,
          "internalType": "uint256",
          "name": "id",
          "type": "uint256"
        }
      ],
      "name": "URI",
      "type": "event"
    },
    {
      "inputs": [
        {
          "internalType": "address",
          "name": "_callerContract",
          "type": "address"
        }
      ],
      "name": "addContractCaller",
      "outputs": [],
      "stateMutability": "nonpayable",
      "type": "function"
    },
    {
      "inputs": [
        {
          "internalType": "address",
          "name": "",
          "type": "address"
        }
      ],
      "name": "allowedCallerContracts",
      "outputs": [
        {
          "internalType": "bool",
          "name": "",
          "type": "bool"
        }
      ],
      "stateMutability": "view",
      "type": "function"
    },
    {
      "inputs": [
        {
          "internalType": "address",
          "name": "account",
          "type": "address"
        },
        {
          "internalType": "uint256",
          "name": "id",
          "type": "uint256"
        }
      ],
      "name": "balanceOf",
      "outputs": [
        {
          "internalType": "uint256",
          "name": "",
          "type": "uint256"
        }
      ],
      "stateMutability": "view",
      "type": "function"
    },
    {
      "inputs": [
        {
          "internalType": "address[]",
          "name": "accounts",
          "type": "address[]"
        },
        {
          "internalType": "uint256[]",
          "name": "ids",
          "type": "uint256[]"
        }
      ],
      "name": "balanceOfBatch",
      "outputs": [
        {
          "internalType": "uint256[]",
          "name": "",
          "type": "uint256[]"
        }
      ],
      "stateMutability": "view",
      "type": "function"
    },
    {
      "inputs": [
        {
          "internalType": "address",
          "name": "user",
          "type": "address"
        },
        {
          "internalType": "uint256",
          "name": "value",
          "type": "uint256"
        }
      ],
      "name": "burnTicket",
      "outputs": [],
      "stateMutability": "nonpayable",
      "type": "function"
    },
    {
      "inputs": [
        {
          "internalType": "address",
          "name": "account",
          "type": "address"
        },
        {
          "internalType": "address",
          "name": "operator",
          "type": "address"
        }
      ],
      "name": "isApprovedForAll",
      "outputs": [
        {
          "internalType": "bool",
          "name": "",
          "type": "bool"
        }
      ],
      "stateMutability": "view",
      "type": "function"
    },
    {
      "inputs": [
        {
          "internalType": "address",
          "name": "user",
          "type": "address"
        }
      ],
      "name": "mintTicket",
      "outputs": [],
      "stateMutability": "nonpayable",
      "type": "function"
    },
    {
      "inputs": [],
      "name": "owner",
      "outputs": [
        {
          "internalType": "address",
          "name": "",
          "type": "address"
        }
      ],
      "stateMutability": "view",
      "type": "function"
    },
    {
      "inputs": [
        {
          "internalType": "address",
          "name": "_callerContract",
          "type": "address"
        }
      ],
      "name": "removeContractCaller",
      "outputs": [],
      "stateMutability": "nonpayable",
      "type": "function"
    },
    {
      "inputs": [],
      "name": "renounceOwnership",
      "outputs": [],
      "stateMutability": "nonpayable",
      "type": "function"
    },
    {
      "inputs": [
        {
          "internalType": "address",
          "name": "from",
          "type": "address"
        },
        {
          "internalType": "address",
          "name": "to",
          "type": "address"
        },
        {
          "internalType": "uint256[]",
          "name": "ids",
          "type": "uint256[]"
        },
        {
          "internalType": "uint256[]",
          "name": "amounts",
          "type": "uint256[]"
        },
        {
          "internalType": "bytes",
          "name": "data",
          "type": "bytes"
        }
      ],
      "name": "safeBatchTransferFrom",
      "outputs": [],
      "stateMutability": "nonpayable",
      "type": "function"
    },
    {
      "inputs": [
        {
          "internalType": "address",
          "name": "from",
          "type": "address"
        },
        {
          "internalType": "address",
          "name": "to",
          "type": "address"
        },
        {
          "internalType": "uint256",
          "name": "id",
          "type": "uint256"
        },
        {
          "internalType": "uint256",
          "name": "amount",
          "type": "uint256"
        },
        {
          "internalType": "bytes",
          "name": "data",
          "type": "bytes"
        }
      ],
      "name": "safeTransferFrom",
      "outputs": [],
      "stateMutability": "nonpayable",
      "type": "function"
    },
    {
      "inputs": [
        {
          "internalType": "address",
          "name": "operator",
          "type": "address"
        },
        {
          "internalType": "bool",
          "name": "approved",
          "type": "bool"
        }
      ],
      "name": "setApprovalForAll",
      "outputs": [],
      "stateMutability": "nonpayable",
      "type": "function"
    },
    {
      "inputs": [
        {
          "internalType": "bytes4",
          "name": "interfaceId",
          "type": "bytes4"
        }
      ],
      "name": "supportsInterface",
      "outputs": [
        {
          "internalType": "bool",
          "name": "",
          "type": "bool"
        }
      ],
      "stateMutability": "view",
      "type": "function"
    },
    {
      "inputs": [
        {
          "internalType": "address",
          "name": "newOwner",
          "type": "address"
        }
      ],
      "name": "transferOwnership",
      "outputs": [],
      "stateMutability": "nonpayable",
      "type": "function"
    },
    {
      "inputs": [
        {
          "internalType": "uint256",
          "name": "",
          "type": "uint256"
        }
      ],
      "name": "uri",
      "outputs": [
        {
          "internalType": "string",
          "name": "",
          "type": "string"
        }
      ],
      "stateMutability": "view",
      "type": "function"
    }
  ],
  "bytecode": "0x608060405234801561001057600080fd5b50604080516020810190915260008152339061002b81610069565b506001600160a01b03811661005a57604051631e4fbdf760e01b81526000600482015260240160405180910390fd5b61006381610079565b50610228565b6002610075828261016a565b5050565b600380546001600160a01b038381166001600160a01b0319831681179093556040519116919082907f8be0079c531659141344cd1fd0a4f28419497f9722a3daafe3b4186f6b6457e090600090a35050565b634e487b7160e01b600052604160045260246000fd5b600181811c908216806100f557607f821691505b60208210810361011557634e487b7160e01b600052602260045260246000fd5b50919050565b601f82111561016557806000526020600020601f840160051c810160208510156101425750805b601f840160051c820191505b81811015610162576000815560010161014e565b50505b505050565b81516001600160401b03811115610183576101836100cb565b6101978161019184546100e1565b8461011b565b6020601f8211600181146101cb57600083156101b35750848201515b600019600385901b1c1916600184901b178455610162565b600084815260208120601f198516915b828110156101fb57878501518255602094850194600190920191016101db565b50848210156102195786840151600019600387901b60f8161c191681555b50505050600190811b01905550565b6116bc806102376000396000f3fe608060405234801561001057600080fd5b50600436106100ff5760003560e01c8063709aa1a611610097578063e985e9c511610066578063e985e9c514610224578063efcc543614610237578063f242432a1461025a578063f2fde38b1461026d57600080fd5b8063709aa1a6146101db578063715018a6146101ee5780638da5cb5b146101f6578063a22cb4651461021157600080fd5b80632eb2c2d6116100d35780632eb2c2d6146101825780634e1273f4146101955780636bde67bf146101b5578063700dbd10146101c857600080fd5b8062fdd58e1461010457806301ffc9a71461012a57806308e9bd261461014d5780630e89341c14610162575b600080fd5b610117610112366004610ff5565b610280565b6040519081526020015b60405180910390f35b61013d610138366004611035565b6102a8565b6040519015158152602001610121565b61016061015b366004611059565b6102f8565b005b610175610170366004611074565b6103a5565b60405161012191906110d3565b61016061019036600461122e565b610439565b6101a86101a33660046112e4565b6104ab565b60405161012191906113e9565b6101606101c3366004611059565b610578565b6101606101d6366004611059565b6105d8565b6101606101e9366004610ff5565b610634565b6101606106c9565b6003546040516001600160a01b039091168152602001610121565b61016061021f3660046113fc565b6106dd565b61013d610232366004611438565b6106ec565b61013d610245366004611059565b60046020526000908152604090205460ff1681565b61016061026836600461146b565b61071a565b61016061027b366004611059565b610785565b6000818152602081815260408083206001600160a01b03861684529091529020545b92915050565b60006001600160e01b03198216636cdb3d1360e11b14806102d957506001600160e01b031982166303a24d0760e21b145b806102a257506301ffc9a760e01b6001600160e01b03198316146102a2565b3360009081526004602052604090205460ff166103305760405162461bcd60e51b8152600401610327906114c4565b60405180910390fd5b600061033a6107c3565b905061035882826001604051806020016040528060008152506107d7565b604080516001600160a01b03841681526020810183905260018183015290517fcbea9c23945e351434f7ae5b1a435091cc278dd9dd0eba4c04203674014ca7d79181900360600190a15050565b6060600280546103b490611505565b80601f01602080910402602001604051908101604052809291908181526020018280546103e090611505565b801561042d5780601f106104025761010080835404028352916020019161042d565b820191906000526020600020905b81548152906001019060200180831161041057829003601f168201915b50505050509050919050565b6001600160a01b038516158061045657506001600160a01b038416155b6104975760405162461bcd60e51b8152602060048201526012602482015271151c985b9cd9995c9cc8191a5cd8589b195960721b6044820152606401610327565b6104a4858585858561083c565b5050505050565b606081518351146104dc5781518351604051635b05999160e01b815260048101929092526024820152604401610327565b6000835167ffffffffffffffff8111156104f8576104f86110e6565b604051908082528060200260200182016040528015610521578160200160208202803683370190505b50905060005b84518110156105705760208082028601015161054b90602080840287010151610280565b82828151811061055d5761055d61153f565b6020908102919091010152600101610527565b509392505050565b61058061089b565b6001600160a01b038116600081815260046020908152604091829020805460ff1916905590519182527f8c5e611041ae20bd0287575e2858027e35906acc84ae72ac3d10e984825f1b5d91015b60405180910390a150565b6105e061089b565b6001600160a01b038116600081815260046020908152604091829020805460ff1916600117905590519182527f1c0c89fe1e84c5a12c77f88deb3a2399505343b5bf164c8ef6e15a77437d887e91016105cd565b3360009081526004602052604090205460ff166106635760405162461bcd60e51b8152600401610327906114c4565b600061066d6107c3565b905061067a8382846108c8565b604080516001600160a01b0385168152602081018390529081018390527f6065a8850c5813614b41368663e05eb6c2244539c572b55da7b9c0ed65bf10e89060600160405180910390a1505050565b6106d161089b565b6106db6000610930565b565b6106e8338383610982565b5050565b6001600160a01b03918216600090815260016020908152604080832093909416825291909152205460ff1690565b6001600160a01b038516158061073757506001600160a01b038416155b6107785760405162461bcd60e51b8152602060048201526012602482015271151c985b9cd9995c9cc8191a5cd8589b195960721b6044820152606401610327565b6104a48585858585610a18565b61078d61089b565b6001600160a01b0381166107b757604051631e4fbdf760e01b815260006004820152602401610327565b6107c081610930565b50565b60006107d262093a8042611555565b905090565b6001600160a01b03841661080157604051632bfa23e760e11b815260006004820152602401610327565b60408051600180825260208201869052818301908152606082018590526080820190925290610834600087848487610a77565b505050505050565b336001600160a01b038616811480159061085d575061085b86826106ec565b155b1561088e5760405163711bec9160e11b81526001600160a01b03808316600483015287166024820152604401610327565b6108348686868686610aca565b6003546001600160a01b031633146106db5760405163118cdaa760e01b8152336004820152602401610327565b6001600160a01b0383166108f157604051626a0d4560e21b815260006004820152602401610327565b604080516001808252602082018590528183019081526060820184905260a082019092526000608082018181529192916104a491879185908590610a77565b600380546001600160a01b038381166001600160a01b0319831681179093556040519116919082907f8be0079c531659141344cd1fd0a4f28419497f9722a3daafe3b4186f6b6457e090600090a35050565b6001600160a01b0382166109ab5760405162ced3e160e81b815260006004820152602401610327565b6001600160a01b03838116600081815260016020908152604080832094871680845294825291829020805460ff191686151590811790915591519182527f17307eab39ab6107e8899845ad3d59bd9653f200f220920489ca2b5937696c31910160405180910390a3505050565b336001600160a01b0386168114801590610a395750610a3786826106ec565b155b15610a6a5760405163711bec9160e11b81526001600160a01b03808316600483015287166024820152604401610327565b6108348686868686610b2a565b610a8385858585610bb8565b6001600160a01b038416156104a45782513390600103610abc5760208481015190840151610ab5838989858589610dcc565b5050610834565b610834818787878787610ef0565b6001600160a01b038416610af457604051632bfa23e760e11b815260006004820152602401610327565b6001600160a01b038516610b1d57604051626a0d4560e21b815260006004820152602401610327565b6104a48585858585610a77565b6001600160a01b038416610b5457604051632bfa23e760e11b815260006004820152602401610327565b6001600160a01b038516610b7d57604051626a0d4560e21b815260006004820152602401610327565b60408051600180825260208201869052818301908152606082018590526080820190925290610baf8787848487610a77565b50505050505050565b8051825114610be75781518151604051635b05999160e01b815260048101929092526024820152604401610327565b3360005b8351811015610ced576020818102858101820151908501909101516001600160a01b03881615610c9e576000828152602081815260408083206001600160a01b038c16845290915290205481811015610c77576040516303dee4c560e01b81526001600160a01b038a166004820152602481018290526044810183905260648101849052608401610327565b6000838152602081815260408083206001600160a01b038d16845290915290209082900390555b6001600160a01b03871615610ce3576000828152602081815260408083206001600160a01b038b16845290915281208054839290610cdd908490611577565b90915550505b5050600101610beb565b508251600103610d6e5760208301516000906020840151909150856001600160a01b0316876001600160a01b0316846001600160a01b03167fc3d58168c5ae7397731d063d5bbf3d657854427343f4c083240f7aacaa2d0f628585604051610d5f929190918252602082015260400190565b60405180910390a450506104a4565b836001600160a01b0316856001600160a01b0316826001600160a01b03167f4a39dc06d4c0dbc64b70af90fd698a233a518aa5d07e595d983b8c0526c8f7fb8686604051610dbd929190611598565b60405180910390a45050505050565b6001600160a01b0384163b156108345760405163f23a6e6160e01b81526001600160a01b0385169063f23a6e6190610e1090899089908890889088906004016115c6565b6020604051808303816000875af1925050508015610e4b575060408051601f3d908101601f19168201909252610e489181019061160b565b60015b610eb4573d808015610e79576040519150601f19603f3d011682016040523d82523d6000602084013e610e7e565b606091505b508051600003610eac57604051632bfa23e760e11b81526001600160a01b0386166004820152602401610327565b805181602001fd5b6001600160e01b0319811663f23a6e6160e01b14610baf57604051632bfa23e760e11b81526001600160a01b0386166004820152602401610327565b6001600160a01b0384163b156108345760405163bc197c8160e01b81526001600160a01b0385169063bc197c8190610f349089908990889088908890600401611628565b6020604051808303816000875af1925050508015610f6f575060408051601f3d908101601f19168201909252610f6c9181019061160b565b60015b610f9d573d808015610e79576040519150601f19603f3d011682016040523d82523d6000602084013e610e7e565b6001600160e01b0319811663bc197c8160e01b14610baf57604051632bfa23e760e11b81526001600160a01b0386166004820152602401610327565b80356001600160a01b0381168114610ff057600080fd5b919050565b6000806040838503121561100857600080fd5b61101183610fd9565b946020939093013593505050565b6001600160e01b0319811681146107c057600080fd5b60006020828403121561104757600080fd5b81356110528161101f565b9392505050565b60006020828403121561106b57600080fd5b61105282610fd9565b60006020828403121561108657600080fd5b5035919050565b6000815180845260005b818110156110b357602081850181015186830182015201611097565b506000602082860101526020601f19601f83011685010191505092915050565b602081526000611052602083018461108d565b634e487b7160e01b600052604160045260246000fd5b604051601f8201601f1916810167ffffffffffffffff81118282101715611125576111256110e6565b604052919050565b600067ffffffffffffffff821115611147576111476110e6565b5060051b60200190565b600082601f83011261116257600080fd5b81356111756111708261112d565b6110fc565b8082825260208201915060208360051b86010192508583111561119757600080fd5b602085015b838110156111b457803583526020928301920161119c565b5095945050505050565b600082601f8301126111cf57600080fd5b813567ffffffffffffffff8111156111e9576111e96110e6565b6111fc601f8201601f19166020016110fc565b81815284602083860101111561121157600080fd5b816020850160208301376000918101602001919091529392505050565b600080600080600060a0868803121561124657600080fd5b61124f86610fd9565b945061125d60208701610fd9565b9350604086013567ffffffffffffffff81111561127957600080fd5b61128588828901611151565b935050606086013567ffffffffffffffff8111156112a257600080fd5b6112ae88828901611151565b925050608086013567ffffffffffffffff8111156112cb57600080fd5b6112d7888289016111be565b9150509295509295909350565b600080604083850312156112f757600080fd5b823567ffffffffffffffff81111561130e57600080fd5b8301601f8101851361131f57600080fd5b803561132d6111708261112d565b8082825260208201915060208360051b85010192508783111561134f57600080fd5b6020840193505b828410156113785761136784610fd9565b825260209384019390910190611356565b9450505050602083013567ffffffffffffffff81111561139757600080fd5b6113a385828601611151565b9150509250929050565b600081518084526020840193506020830160005b828110156113df5781518652602095860195909101906001016113c1565b5093949350505050565b60208152600061105260208301846113ad565b6000806040838503121561140f57600080fd5b61141883610fd9565b91506020830135801515811461142d57600080fd5b809150509250929050565b6000806040838503121561144b57600080fd5b61145483610fd9565b915061146260208401610fd9565b90509250929050565b600080600080600060a0868803121561148357600080fd5b61148c86610fd9565b945061149a60208701610fd9565b93506040860135925060608601359150608086013567ffffffffffffffff8111156112cb57600080fd5b60208082526021908201527f4e6f7420616e20617574686f72697a65642063616c6c657220636f6e747261636040820152601d60fa1b606082015260800190565b600181811c9082168061151957607f821691505b60208210810361153957634e487b7160e01b600052602260045260246000fd5b50919050565b634e487b7160e01b600052603260045260246000fd5b60008261157257634e487b7160e01b600052601260045260246000fd5b500490565b808201808211156102a257634e487b7160e01b600052601160045260246000fd5b6040815260006115ab60408301856113ad565b82810360208401526115bd81856113ad565b95945050505050565b6001600160a01b03868116825285166020820152604081018490526060810183905260a0608082018190526000906116009083018461108d565b979650505050505050565b60006020828403121561161d57600080fd5b81516110528161101f565b6001600160a01b0386811682528516602082015260a060408201819052600090611654908301866113ad565b828103606084015261166681866113ad565b9050828103608084015261167a818561108d565b9897505050505050505056fea2646970667358221220250754c844ba527beb24f7580c2227f157f5b24f4c68f4645689d838e94ba80464736f6c634300081c0033",
  "linkReferences": {},
  "deployedLinkReferences": {}
}