{
  "_format": "hh-sol-artifact-1",
  "contractName": "DLivretTicket",
  "sourceName": "contracts/DLivretTicket.sol",
  "abi": [
    {
      "inputs": [],
      "stateMutability": "nonpayable",
      "type": "constructor"
    },
    {
      "inputs": [
        {
          "internalType": "address",
          "name": "sender",
          "type": "address"
        },
        {
          "internalType": "uint256",
          "name": "balance",
          "type": "uint256"
        },
        {
          "internalType": "uint256",
          "name": "needed",
          "type": "uint256"
        },
        {
          "internalType": "uint256",
          "name": "tokenId",
          "type": "uint256"
        }
      ],
      "name": "ERC1155InsufficientBalance",
      "type": "error"
    },
    {
      "inputs": [
        {
          "internalType": "address",
          "name": "approver",
          "type": "address"
        }
      ],
      "name": "ERC1155InvalidApprover",
      "type": "error"
    },
    {
      "inputs": [
        {
          "internalType": "uint256",
          "name": "idsLength",
          "type": "uint256"
        },
        {
          "internalType": "uint256",
          "name": "valuesLength",
          "type": "uint256"
        }
      ],
      "name": "ERC1155InvalidArrayLength",
      "type": "error"
    },
    {
      "inputs": [
        {
          "internalType": "address",
          "name": "operator",
          "type": "address"
        }
      ],
      "name": "ERC1155InvalidOperator",
      "type": "error"
    },
    {
      "inputs": [
        {
          "internalType": "address",
          "name": "receiver",
          "type": "address"
        }
      ],
      "name": "ERC1155InvalidReceiver",
      "type": "error"
    },
    {
      "inputs": [
        {
          "internalType": "address",
          "name": "sender",
          "type": "address"
        }
      ],
      "name": "ERC1155InvalidSender",
      "type": "error"
    },
    {
      "inputs": [
        {
          "internalType": "address",
          "name": "operator",
          "type": "address"
        },
        {
          "internalType": "address",
          "name": "owner",
          "type": "address"
        }
      ],
      "name": "ERC1155MissingApprovalForAll",
      "type": "error"
    },
    {
      "inputs": [
        {
          "internalType": "address",
          "name": "owner",
          "type": "address"
        }
      ],
      "name": "OwnableInvalidOwner",
      "type": "error"
    },
    {
      "inputs": [
        {
          "internalType": "address",
          "name": "account",
          "type": "address"
        }
      ],
      "name": "OwnableUnauthorizedAccount",
      "type": "error"
    },
    {
      "anonymous": false,
      "inputs": [
        {
          "indexed": true,
          "internalType": "address",
          "name": "account",
          "type": "address"
        },
        {
          "indexed": true,
          "internalType": "address",
          "name": "operator",
          "type": "address"
        },
        {
          "indexed": false,
          "internalType": "bool",
          "name": "approved",
          "type": "bool"
        }
      ],
      "name": "ApprovalForAll",
      "type": "event"
    },
    {
      "anonymous": false,
      "inputs": [
        {
          "indexed": false,
          "internalType": "address",
          "name": "callerContract",
          "type": "address"
        }
      ],
      "name": "CallerContractAdded",
      "type": "event"
    },
    {
      "anonymous": false,
      "inputs": [
        {
          "indexed": false,
          "internalType": "address",
          "name": "callerContract",
          "type": "address"
        }
      ],
      "name": "CallerContractRemoved",
      "type": "event"
    },
    {
      "anonymous": false,
      "inputs": [
        {
          "indexed": true,
          "internalType": "address",
          "name": "previousOwner",
          "type": "address"
        },
        {
          "indexed": true,
          "internalType": "address",
          "name": "newOwner",
          "type": "address"
        }
      ],
      "name": "OwnershipTransferred",
      "type": "event"
    },
    {
      "anonymous": false,
      "inputs": [
        {
          "indexed": false,
          "internalType": "address",
          "name": "user",
          "type": "address"
        },
        {
          "indexed": false,
          "internalType": "uint256",
          "name": "ticketId",
          "type": "uint256"
        },
        {
          "indexed": false,
          "internalType": "uint256",
          "name": "amount",
          "type": "uint256"
        }
      ],
      "name": "TicketBurned",
      "type": "event"
    },
    {
      "anonymous": false,
      "inputs": [
        {
          "indexed": false,
          "internalType": "address",
          "name": "user",
          "type": "address"
        },
        {
          "indexed": false,
          "internalType": "uint256",
          "name": "ticketId",
          "type": "uint256"
        },
        {
          "indexed": false,
          "internalType": "uint256",
          "name": "amount",
          "type": "uint256"
        }
      ],
      "name": "TicketMinted",
      "type": "event"
    },
    {
      "anonymous": false,
      "inputs": [
        {
          "indexed": true,
          "internalType": "address",
          "name": "operator",
          "type": "address"
        },
        {
          "indexed": true,
          "internalType": "address",
          "name": "from",
          "type": "address"
        },
        {
          "indexed": true,
          "internalType": "address",
          "name": "to",
          "type": "address"
        },
        {
          "indexed": false,
          "internalType": "uint256[]",
          "name": "ids",
          "type": "uint256[]"
        },
        {
          "indexed": false,
          "internalType": "uint256[]",
          "name": "values",
          "type": "uint256[]"
        }
      ],
      "name": "TransferBatch",
      "type": "event"
    },
    {
      "anonymous": false,
      "inputs": [
        {
          "indexed": true,
          "internalType": "address",
          "name": "operator",
          "type": "address"
        },
        {
          "indexed": true,
          "internalType": "address",
          "name": "from",
          "type": "address"
        },
        {
          "indexed": true,
          "internalType": "address",
          "name": "to",
          "type": "address"
        },
        {
          "indexed": false,
          "internalType": "uint256",
          "name": "id",
          "type": "uint256"
        },
        {
          "indexed": false,
          "internalType": "uint256",
          "name": "value",
          "type": "uint256"
        }
      ],
      "name": "TransferSingle",
      "type": "event"
    },
    {
      "anonymous": false,
      "inputs": [
        {
          "indexed": false,
          "internalType": "string",
          "name": "value",
          "type": "string"
        },
        {
          "indexed": true,
          "internalType": "uint256",
          "name": "id",
          "type": "uint256"
        }
      ],
      "name": "URI",
      "type": "event"
    },
    {
      "inputs": [
        {
          "internalType": "address",
          "name": "_callerContract",
          "type": "address"
        }
      ],
      "name": "addContractCaller",
      "outputs": [],
      "stateMutability": "nonpayable",
      "type": "function"
    },
    {
      "inputs": [
        {
          "internalType": "address",
          "name": "",
          "type": "address"
        }
      ],
      "name": "allowedCallerContracts",
      "outputs": [
        {
          "internalType": "bool",
          "name": "",
          "type": "bool"
        }
      ],
      "stateMutability": "view",
      "type": "function"
    },
    {
      "inputs": [
        {
          "internalType": "address",
          "name": "account",
          "type": "address"
        },
        {
          "internalType": "uint256",
          "name": "id",
          "type": "uint256"
        }
      ],
      "name": "balanceOf",
      "outputs": [
        {
          "internalType": "uint256",
          "name": "",
          "type": "uint256"
        }
      ],
      "stateMutability": "view",
      "type": "function"
    },
    {
      "inputs": [
        {
          "internalType": "address[]",
          "name": "accounts",
          "type": "address[]"
        },
        {
          "internalType": "uint256[]",
          "name": "ids",
          "type": "uint256[]"
        }
      ],
      "name": "balanceOfBatch",
      "outputs": [
        {
          "internalType": "uint256[]",
          "name": "",
          "type": "uint256[]"
        }
      ],
      "stateMutability": "view",
      "type": "function"
    },
    {
      "inputs": [
        {
          "internalType": "address",
          "name": "account",
          "type": "address"
        },
        {
          "internalType": "address",
          "name": "operator",
          "type": "address"
        }
      ],
      "name": "isApprovedForAll",
      "outputs": [
        {
          "internalType": "bool",
          "name": "",
          "type": "bool"
        }
      ],
      "stateMutability": "view",
      "type": "function"
    },
    {
      "inputs": [
        {
          "internalType": "address",
          "name": "user",
          "type": "address"
        }
      ],
      "name": "mintTicket",
      "outputs": [],
      "stateMutability": "nonpayable",
      "type": "function"
    },
    {
      "inputs": [],
      "name": "owner",
      "outputs": [
        {
          "internalType": "address",
          "name": "",
          "type": "address"
        }
      ],
      "stateMutability": "view",
      "type": "function"
    },
    {
      "inputs": [
        {
          "internalType": "address",
          "name": "_callerContract",
          "type": "address"
        }
      ],
      "name": "removeContractCaller",
      "outputs": [],
      "stateMutability": "nonpayable",
      "type": "function"
    },
    {
      "inputs": [],
      "name": "renounceOwnership",
      "outputs": [],
      "stateMutability": "nonpayable",
      "type": "function"
    },
    {
      "inputs": [
        {
          "internalType": "address",
          "name": "from",
          "type": "address"
        },
        {
          "internalType": "address",
          "name": "to",
          "type": "address"
        },
        {
          "internalType": "uint256[]",
          "name": "ids",
          "type": "uint256[]"
        },
        {
          "internalType": "uint256[]",
          "name": "amounts",
          "type": "uint256[]"
        },
        {
          "internalType": "bytes",
          "name": "data",
          "type": "bytes"
        }
      ],
      "name": "safeBatchTransferFrom",
      "outputs": [],
      "stateMutability": "nonpayable",
      "type": "function"
    },
    {
      "inputs": [
        {
          "internalType": "address",
          "name": "from",
          "type": "address"
        },
        {
          "internalType": "address",
          "name": "to",
          "type": "address"
        },
        {
          "internalType": "uint256",
          "name": "id",
          "type": "uint256"
        },
        {
          "internalType": "uint256",
          "name": "amount",
          "type": "uint256"
        },
        {
          "internalType": "bytes",
          "name": "data",
          "type": "bytes"
        }
      ],
      "name": "safeTransferFrom",
      "outputs": [],
      "stateMutability": "nonpayable",
      "type": "function"
    },
    {
      "inputs": [
        {
          "internalType": "address",
          "name": "operator",
          "type": "address"
        },
        {
          "internalType": "bool",
          "name": "approved",
          "type": "bool"
        }
      ],
      "name": "setApprovalForAll",
      "outputs": [],
      "stateMutability": "nonpayable",
      "type": "function"
    },
    {
      "inputs": [
        {
          "internalType": "bytes4",
          "name": "interfaceId",
          "type": "bytes4"
        }
      ],
      "name": "supportsInterface",
      "outputs": [
        {
          "internalType": "bool",
          "name": "",
          "type": "bool"
        }
      ],
      "stateMutability": "view",
      "type": "function"
    },
    {
      "inputs": [
        {
          "internalType": "address",
          "name": "newOwner",
          "type": "address"
        }
      ],
      "name": "transferOwnership",
      "outputs": [],
      "stateMutability": "nonpayable",
      "type": "function"
    },
    {
      "inputs": [
        {
          "internalType": "uint256",
          "name": "",
          "type": "uint256"
        }
      ],
      "name": "uri",
      "outputs": [
        {
          "internalType": "string",
          "name": "",
          "type": "string"
        }
      ],
      "stateMutability": "view",
      "type": "function"
    }
  ],
  "bytecode": "0x608060405234801561001057600080fd5b50604080516020810190915260008152339061002b81610069565b506001600160a01b03811661005a57604051631e4fbdf760e01b81526000600482015260240160405180910390fd5b61006381610079565b50610228565b6002610075828261016a565b5050565b600380546001600160a01b038381166001600160a01b0319831681179093556040519116919082907f8be0079c531659141344cd1fd0a4f28419497f9722a3daafe3b4186f6b6457e090600090a35050565b634e487b7160e01b600052604160045260246000fd5b600181811c908216806100f557607f821691505b60208210810361011557634e487b7160e01b600052602260045260246000fd5b50919050565b601f82111561016557806000526020600020601f840160051c810160208510156101425750805b601f840160051c820191505b81811015610162576000815560010161014e565b50505b505050565b81516001600160401b03811115610183576101836100cb565b6101978161019184546100e1565b8461011b565b6020601f8211600181146101cb57600083156101b35750848201515b600019600385901b1c1916600184901b178455610162565b600084815260208120601f198516915b828110156101fb57878501518255602094850194600190920191016101db565b50848210156102195786840151600019600387901b60f8161c191681555b50505050600190811b01905550565b611596806102376000396000f3fe608060405234801561001057600080fd5b50600436106100f45760003560e01c8063700dbd1011610097578063e985e9c511610066578063e985e9c514610206578063efcc543614610219578063f242432a1461023c578063f2fde38b1461024f57600080fd5b8063700dbd10146101bd578063715018a6146101d05780638da5cb5b146101d8578063a22cb465146101f357600080fd5b80630e89341c116100d35780630e89341c146101575780632eb2c2d6146101775780634e1273f41461018a5780636bde67bf146101aa57600080fd5b8062fdd58e146100f957806301ffc9a71461011f57806308e9bd2614610142575b600080fd5b61010c610107366004610f10565b610262565b6040519081526020015b60405180910390f35b61013261012d366004610f50565b61028a565b6040519015158152602001610116565b610155610150366004610f74565b6102da565b005b61016a610165366004610f8f565b6103bd565b6040516101169190610fee565b610155610185366004611149565b610451565b61019d6101983660046111ff565b6104c3565b6040516101169190611304565b6101556101b8366004610f74565b610590565b6101556101cb366004610f74565b6105f0565b61015561064c565b6003546040516001600160a01b039091168152602001610116565b610155610201366004611317565b610660565b610132610214366004611353565b61066f565b610132610227366004610f74565b60046020526000908152604090205460ff1681565b61015561024a366004611386565b61069d565b61015561025d366004610f74565b610708565b6000818152602081815260408083206001600160a01b03861684529091529020545b92915050565b60006001600160e01b03198216636cdb3d1360e11b14806102bb57506001600160e01b031982166303a24d0760e21b145b8061028457506301ffc9a760e01b6001600160e01b0319831614610284565b3360009081526004602052604090205460ff166103485760405162461bcd60e51b815260206004820152602160248201527f4e6f7420616e20617574686f72697a65642063616c6c657220636f6e747261636044820152601d60fa1b60648201526084015b60405180910390fd5b6000610352610746565b9050610370828260016040518060200160405280600081525061075a565b604080516001600160a01b03841681526020810183905260018183015290517fcbea9c23945e351434f7ae5b1a435091cc278dd9dd0eba4c04203674014ca7d79181900360600190a15050565b6060600280546103cc906113df565b80601f01602080910402602001604051908101604052809291908181526020018280546103f8906113df565b80156104455780601f1061041a57610100808354040283529160200191610445565b820191906000526020600020905b81548152906001019060200180831161042857829003601f168201915b50505050509050919050565b6001600160a01b038516158061046e57506001600160a01b038416155b6104af5760405162461bcd60e51b8152602060048201526012602482015271151c985b9cd9995c9cc8191a5cd8589b195960721b604482015260640161033f565b6104bc85858585856107bf565b5050505050565b606081518351146104f45781518351604051635b05999160e01b81526004810192909252602482015260440161033f565b6000835167ffffffffffffffff81111561051057610510611001565b604051908082528060200260200182016040528015610539578160200160208202803683370190505b50905060005b84518110156105885760208082028601015161056390602080840287010151610262565b82828151811061057557610575611419565b602090810291909101015260010161053f565b509392505050565b61059861081e565b6001600160a01b038116600081815260046020908152604091829020805460ff1916905590519182527f8c5e611041ae20bd0287575e2858027e35906acc84ae72ac3d10e984825f1b5d91015b60405180910390a150565b6105f861081e565b6001600160a01b038116600081815260046020908152604091829020805460ff1916600117905590519182527f1c0c89fe1e84c5a12c77f88deb3a2399505343b5bf164c8ef6e15a77437d887e91016105e5565b61065461081e565b61065e600061084b565b565b61066b33838361089d565b5050565b6001600160a01b03918216600090815260016020908152604080832093909416825291909152205460ff1690565b6001600160a01b03851615806106ba57506001600160a01b038416155b6106fb5760405162461bcd60e51b8152602060048201526012602482015271151c985b9cd9995c9cc8191a5cd8589b195960721b604482015260640161033f565b6104bc8585858585610933565b61071061081e565b6001600160a01b03811661073a57604051631e4fbdf760e01b81526000600482015260240161033f565b6107438161084b565b50565b600061075562093a804261142f565b905090565b6001600160a01b03841661078457604051632bfa23e760e11b81526000600482015260240161033f565b604080516001808252602082018690528183019081526060820185905260808201909252906107b7600087848487610992565b505050505050565b336001600160a01b03861681148015906107e057506107de868261066f565b155b156108115760405163711bec9160e11b81526001600160a01b0380831660048301528716602482015260440161033f565b6107b786868686866109e5565b6003546001600160a01b0316331461065e5760405163118cdaa760e01b815233600482015260240161033f565b600380546001600160a01b038381166001600160a01b0319831681179093556040519116919082907f8be0079c531659141344cd1fd0a4f28419497f9722a3daafe3b4186f6b6457e090600090a35050565b6001600160a01b0382166108c65760405162ced3e160e81b81526000600482015260240161033f565b6001600160a01b03838116600081815260016020908152604080832094871680845294825291829020805460ff191686151590811790915591519182527f17307eab39ab6107e8899845ad3d59bd9653f200f220920489ca2b5937696c31910160405180910390a3505050565b336001600160a01b03861681148015906109545750610952868261066f565b155b156109855760405163711bec9160e11b81526001600160a01b0380831660048301528716602482015260440161033f565b6107b78686868686610a45565b61099e85858585610ad3565b6001600160a01b038416156104bc57825133906001036109d757602084810151908401516109d0838989858589610ce7565b50506107b7565b6107b7818787878787610e0b565b6001600160a01b038416610a0f57604051632bfa23e760e11b81526000600482015260240161033f565b6001600160a01b038516610a3857604051626a0d4560e21b81526000600482015260240161033f565b6104bc8585858585610992565b6001600160a01b038416610a6f57604051632bfa23e760e11b81526000600482015260240161033f565b6001600160a01b038516610a9857604051626a0d4560e21b81526000600482015260240161033f565b60408051600180825260208201869052818301908152606082018590526080820190925290610aca8787848487610992565b50505050505050565b8051825114610b025781518151604051635b05999160e01b81526004810192909252602482015260440161033f565b3360005b8351811015610c08576020818102858101820151908501909101516001600160a01b03881615610bb9576000828152602081815260408083206001600160a01b038c16845290915290205481811015610b92576040516303dee4c560e01b81526001600160a01b038a16600482015260248101829052604481018390526064810184905260840161033f565b6000838152602081815260408083206001600160a01b038d16845290915290209082900390555b6001600160a01b03871615610bfe576000828152602081815260408083206001600160a01b038b16845290915281208054839290610bf8908490611451565b90915550505b5050600101610b06565b508251600103610c895760208301516000906020840151909150856001600160a01b0316876001600160a01b0316846001600160a01b03167fc3d58168c5ae7397731d063d5bbf3d657854427343f4c083240f7aacaa2d0f628585604051610c7a929190918252602082015260400190565b60405180910390a450506104bc565b836001600160a01b0316856001600160a01b0316826001600160a01b03167f4a39dc06d4c0dbc64b70af90fd698a233a518aa5d07e595d983b8c0526c8f7fb8686604051610cd8929190611472565b60405180910390a45050505050565b6001600160a01b0384163b156107b75760405163f23a6e6160e01b81526001600160a01b0385169063f23a6e6190610d2b90899089908890889088906004016114a0565b6020604051808303816000875af1925050508015610d66575060408051601f3d908101601f19168201909252610d63918101906114e5565b60015b610dcf573d808015610d94576040519150601f19603f3d011682016040523d82523d6000602084013e610d99565b606091505b508051600003610dc757604051632bfa23e760e11b81526001600160a01b038616600482015260240161033f565b805181602001fd5b6001600160e01b0319811663f23a6e6160e01b14610aca57604051632bfa23e760e11b81526001600160a01b038616600482015260240161033f565b6001600160a01b0384163b156107b75760405163bc197c8160e01b81526001600160a01b0385169063bc197c8190610e4f9089908990889088908890600401611502565b6020604051808303816000875af1925050508015610e8a575060408051601f3d908101601f19168201909252610e87918101906114e5565b60015b610eb8573d808015610d94576040519150601f19603f3d011682016040523d82523d6000602084013e610d99565b6001600160e01b0319811663bc197c8160e01b14610aca57604051632bfa23e760e11b81526001600160a01b038616600482015260240161033f565b80356001600160a01b0381168114610f0b57600080fd5b919050565b60008060408385031215610f2357600080fd5b610f2c83610ef4565b946020939093013593505050565b6001600160e01b03198116811461074357600080fd5b600060208284031215610f6257600080fd5b8135610f6d81610f3a565b9392505050565b600060208284031215610f8657600080fd5b610f6d82610ef4565b600060208284031215610fa157600080fd5b5035919050565b6000815180845260005b81811015610fce57602081850181015186830182015201610fb2565b506000602082860101526020601f19601f83011685010191505092915050565b602081526000610f6d6020830184610fa8565b634e487b7160e01b600052604160045260246000fd5b604051601f8201601f1916810167ffffffffffffffff8111828210171561104057611040611001565b604052919050565b600067ffffffffffffffff82111561106257611062611001565b5060051b60200190565b600082601f83011261107d57600080fd5b813561109061108b82611048565b611017565b8082825260208201915060208360051b8601019250858311156110b257600080fd5b602085015b838110156110cf5780358352602092830192016110b7565b5095945050505050565b600082601f8301126110ea57600080fd5b813567ffffffffffffffff81111561110457611104611001565b611117601f8201601f1916602001611017565b81815284602083860101111561112c57600080fd5b816020850160208301376000918101602001919091529392505050565b600080600080600060a0868803121561116157600080fd5b61116a86610ef4565b945061117860208701610ef4565b9350604086013567ffffffffffffffff81111561119457600080fd5b6111a08882890161106c565b935050606086013567ffffffffffffffff8111156111bd57600080fd5b6111c98882890161106c565b925050608086013567ffffffffffffffff8111156111e657600080fd5b6111f2888289016110d9565b9150509295509295909350565b6000806040838503121561121257600080fd5b823567ffffffffffffffff81111561122957600080fd5b8301601f8101851361123a57600080fd5b803561124861108b82611048565b8082825260208201915060208360051b85010192508783111561126a57600080fd5b6020840193505b828410156112935761128284610ef4565b825260209384019390910190611271565b9450505050602083013567ffffffffffffffff8111156112b257600080fd5b6112be8582860161106c565b9150509250929050565b600081518084526020840193506020830160005b828110156112fa5781518652602095860195909101906001016112dc565b5093949350505050565b602081526000610f6d60208301846112c8565b6000806040838503121561132a57600080fd5b61133383610ef4565b91506020830135801515811461134857600080fd5b809150509250929050565b6000806040838503121561136657600080fd5b61136f83610ef4565b915061137d60208401610ef4565b90509250929050565b600080600080600060a0868803121561139e57600080fd5b6113a786610ef4565b94506113b560208701610ef4565b93506040860135925060608601359150608086013567ffffffffffffffff8111156111e657600080fd5b600181811c908216806113f357607f821691505b60208210810361141357634e487b7160e01b600052602260045260246000fd5b50919050565b634e487b7160e01b600052603260045260246000fd5b60008261144c57634e487b7160e01b600052601260045260246000fd5b500490565b8082018082111561028457634e487b7160e01b600052601160045260246000fd5b60408152600061148560408301856112c8565b828103602084015261149781856112c8565b95945050505050565b6001600160a01b03868116825285166020820152604081018490526060810183905260a0608082018190526000906114da90830184610fa8565b979650505050505050565b6000602082840312156114f757600080fd5b8151610f6d81610f3a565b6001600160a01b0386811682528516602082015260a06040820181905260009061152e908301866112c8565b828103606084015261154081866112c8565b905082810360808401526115548185610fa8565b9897505050505050505056fea264697066735822122069d962cc5c59499f881c3c9684c2f95e49c3c01a138417d7491670c1b0432d7164736f6c634300081c0033",
  "linkReferences": {},
  "deployedLinkReferences": {}
}